{
  "contractName": "SpaceY",
  "abi": [
    {
      "inputs": [
        {
          "internalType": "uint16",
          "name": "universeSize",
          "type": "uint16"
        }
      ],
      "payable": false,
      "stateMutability": "nonpayable",
      "type": "constructor"
    },
    {
      "anonymous": false,
      "inputs": [
        {
          "indexed": false,
          "internalType": "uint32",
          "name": "planet_id",
          "type": "uint32"
        },
        {
          "indexed": true,
          "internalType": "address",
          "name": "new_owner",
          "type": "address"
        }
      ],
      "name": "PlanetConquered",
      "type": "event"
    },
    {
      "constant": true,
      "inputs": [],
      "name": "size",
      "outputs": [
        {
          "internalType": "uint16",
          "name": "",
          "type": "uint16"
        }
      ],
      "payable": false,
      "stateMutability": "view",
      "type": "function"
    },
    {
      "constant": true,
      "inputs": [
        {
          "internalType": "uint32",
          "name": "planet_id",
          "type": "uint32"
        }
      ],
      "name": "getPlanetStats",
      "outputs": [
        {
          "internalType": "uint64",
          "name": "unitsCost",
          "type": "uint64"
        },
        {
          "internalType": "uint64",
          "name": "unitsCreationPerSecond",
          "type": "uint64"
        }
      ],
      "payable": false,
      "stateMutability": "view",
      "type": "function"
    },
    {
      "constant": false,
      "inputs": [
        {
          "internalType": "uint32",
          "name": "from_planet_id",
          "type": "uint32"
        },
        {
          "internalType": "uint32",
          "name": "to_planet_id",
          "type": "uint32"
        },
        {
          "internalType": "uint64",
          "name": "unit_amount",
          "type": "uint64"
        }
      ],
      "name": "moveUnits",
      "outputs": [],
      "payable": false,
      "stateMutability": "nonpayable",
      "type": "function"
    }
  ],
  "bytecode": "0x608060405234801561001057600080fd5b506040516104cf3803806104cf8339818101604052602081101561003357600080fd5b8101908080519060200190929190505050806000806101000a81548161ffff021916908361ffff1602179055505061045f806100706000396000f3fe608060405234801561001057600080fd5b50600436106100415760003560e01c80632ed9a1e01461004657806348758b751461009e578063949d225d14610115575b600080fd5b61009c6004803603606081101561005c57600080fd5b81019080803563ffffffff169060200190929190803563ffffffff169060200190929190803567ffffffffffffffff16906020019092919050505061013b565b005b6100d0600480360360208110156100b457600080fd5b81019080803563ffffffff16906020019092919050505061030e565b604051808367ffffffffffffffff1667ffffffffffffffff1681526020018267ffffffffffffffff1667ffffffffffffffff1681526020019250505060405180910390f35b61011d610417565b604051808261ffff1661ffff16815260200191505060405180910390f35b81333373ffffffffffffffffffffffffffffffffffffffff16600160008463ffffffff1663ffffffff16815260200190815260200160002060000160009054906101000a900473ffffffffffffffffffffffffffffffffffffffff1673ffffffffffffffffffffffffffffffffffffffff1614610220576040517f08c379a00000000000000000000000000000000000000000000000000000000081526004018080602001828103825260118152602001807f4e6f74206f776e696e6720706c616e657400000000000000000000000000000081525060200191505060405180910390fd5b84333373ffffffffffffffffffffffffffffffffffffffff16600160008463ffffffff1663ffffffff16815260200190815260200160002060000160009054906101000a900473ffffffffffffffffffffffffffffffffffffffff1673ffffffffffffffffffffffffffffffffffffffff1614610305576040517f08c379a00000000000000000000000000000000000000000000000000000000081526004018080602001828103825260118152602001807f4e6f74206f776e696e6720706c616e657400000000000000000000000000000081525060200191505060405180910390fd5b50505050505050565b600080600060026000809054906101000a900461ffff1661ffff16856000809054906101000a900461ffff1661ffff1660018161034757fe5b0461ffff1602031863ffffffff1690506000818563ffffffff1601604051602001808267ffffffffffffffff1667ffffffffffffffff1681526020019150506040516020818303038152906040528051906020012090508167ffffffffffffffff16816000602081106103b657fe5b1a60f81b60f81c60ff16830267ffffffffffffffff16816103d357fe5b0682018267ffffffffffffffff16826001602081106103ee57fe5b1a60f81b60f81c60ff16840167ffffffffffffffff168161040b57fe5b06935093505050915091565b6000809054906101000a900461ffff168156fea265627a7a72315820a3550638827d702206d824e26a360c556cbcb687bc93c21ce6852c3594986bcc64736f6c63430005100032",
  "source": "pragma solidity >=0.4.22 <0.9.0;\n\ncontract SpaceY {\n    struct Planet {\n        address owner;\n        uint64 units;\n    }\n\n    struct PlanetStats {\n        uint64 unitsCost;\n        uint64 unitsCreationPerSecond;\n    }\n\n    uint16 public size;\n\n    mapping(uint32 => Planet) planets;\n\n    constructor(uint16 universeSize) public {\n        size = universeSize;\n    }\n\n    modifier ownsPlanet(uint32 planet_id, address person) {\n        require(planets[planet_id].owner == msg.sender, \"Not owning planet\");\n        _;\n    }\n\n    event PlanetConquered(uint32 planet_id, address indexed new_owner);\n\n    function getPlanetStats(uint32 planet_id)\n        public\n        view\n        returns (uint64 unitsCost, uint64 unitsCreationPerSecond)\n    {\n        uint64 magnitute = ((1 / size) * planet_id - size) ^ 2;\n        bytes32 hash_factor = keccak256(abi.encode(planet_id + magnitute));\n\n        return (\n            magnitute + ((magnitute * uint8(hash_factor[0])) % magnitute),\n            (magnitute + uint8(hash_factor[1])) % magnitute\n        );\n    }\n\n    function moveUnits(\n        uint32 from_planet_id,\n        uint32 to_planet_id,\n        uint64 unit_amount\n    )\n        public\n        ownsPlanet(to_planet_id, msg.sender)\n        ownsPlanet(from_planet_id, msg.sender)\n    {}\n}\n",
  "sourcePath": "/home/manuel/projects/spacey/contracts/SpaceY.sol",
  "compiler": {
    "name": "solc",
    "version": "0.5.16+commit.9c3226ce.Emscripten.clang"
  },
  "schemaVersion": "3.3.3",
  "updatedAt": "2021-02-02T16:47:24.116Z",
  "networkType": "ethereum",
  "devdoc": {
    "methods": {}
  },
  "userdoc": {
    "methods": {}
  }
}